:030000000208A350
:0C08A300787FE4F6D8FD75810702085547
:1008550075B0017FE87E0312087F75B0047FE87EDE
:100865000312087F75B0027FE87E0312087F75B01A
:0A087500087FE87E0312087F80D69A
:10087F007C007D19120800E4FEEEC39F50157589A8
:10088F0001758ACB758C7DD28C308DFDC28DC28C5B
:03089F000E80E6E2
:0108A2002233
:10080000BC000BBE0029EF8DF084FFADF022E4CCDC
:10081000F875F008EF2FFFEE33FEEC33FCEE9DECA5
:10082000984005FCEE9DFE0FD5F0E9E4CEFD22EDEB
:10083000F8F5F0EE8420D21CFEADF075F008EF2F35
:10084000FFED33FD4007985006D5F0F222C398FD26
:050850000FD5F0EA22C3
:00000001FF
